{
  "contractName": "Voting",
  "abi": [
    {
      "anonymous": false,
      "inputs": [
        {
          "indexed": true,
          "internalType": "address",
          "name": "previousOwner",
          "type": "address"
        },
        {
          "indexed": true,
          "internalType": "address",
          "name": "newOwner",
          "type": "address"
        }
      ],
      "name": "OwnershipTransferred",
      "type": "event"
    },
    {
      "anonymous": false,
      "inputs": [
        {
          "indexed": false,
          "internalType": "uint256",
          "name": "proposalId",
          "type": "uint256"
        }
      ],
      "name": "ProposalRegistered",
      "type": "event"
    },
    {
      "anonymous": false,
      "inputs": [
        {
          "indexed": false,
          "internalType": "address",
          "name": "voter",
          "type": "address"
        },
        {
          "indexed": false,
          "internalType": "uint256",
          "name": "proposalId",
          "type": "uint256"
        }
      ],
      "name": "Voted",
      "type": "event"
    },
    {
      "anonymous": false,
      "inputs": [
        {
          "indexed": false,
          "internalType": "address",
          "name": "voterAddress",
          "type": "address"
        }
      ],
      "name": "VoterRegistered",
      "type": "event"
    },
    {
      "anonymous": false,
      "inputs": [
        {
          "indexed": false,
          "internalType": "enum Voting.WorkflowStatus",
          "name": "previousStatus",
          "type": "uint8"
        },
        {
          "indexed": false,
          "internalType": "enum Voting.WorkflowStatus",
          "name": "newStatus",
          "type": "uint8"
        }
      ],
      "name": "WorkflowStatusChange",
      "type": "event"
    },
    {
      "inputs": [],
      "name": "owner",
      "outputs": [
        {
          "internalType": "address",
          "name": "",
          "type": "address"
        }
      ],
      "stateMutability": "view",
      "type": "function",
      "constant": true
    },
    {
      "inputs": [],
      "name": "renounceOwnership",
      "outputs": [],
      "stateMutability": "nonpayable",
      "type": "function"
    },
    {
      "inputs": [
        {
          "internalType": "address",
          "name": "newOwner",
          "type": "address"
        }
      ],
      "name": "transferOwnership",
      "outputs": [],
      "stateMutability": "nonpayable",
      "type": "function"
    },
    {
      "inputs": [],
      "name": "winningProposalID",
      "outputs": [
        {
          "internalType": "uint256",
          "name": "",
          "type": "uint256"
        }
      ],
      "stateMutability": "view",
      "type": "function",
      "constant": true
    },
    {
      "inputs": [],
      "name": "winningProposalIDVoteCount",
      "outputs": [
        {
          "internalType": "uint256",
          "name": "",
          "type": "uint256"
        }
      ],
      "stateMutability": "view",
      "type": "function",
      "constant": true
    },
    {
      "inputs": [],
      "name": "workflowStatus",
      "outputs": [
        {
          "internalType": "enum Voting.WorkflowStatus",
          "name": "",
          "type": "uint8"
        }
      ],
      "stateMutability": "view",
      "type": "function",
      "constant": true
    },
    {
      "inputs": [
        {
          "internalType": "address",
          "name": "_addr",
          "type": "address"
        }
      ],
      "name": "getVoter",
      "outputs": [
        {
          "components": [
            {
              "internalType": "bool",
              "name": "isRegistered",
              "type": "bool"
            },
            {
              "internalType": "bool",
              "name": "hasVoted",
              "type": "bool"
            },
            {
              "internalType": "uint256",
              "name": "votedProposalId",
              "type": "uint256"
            }
          ],
          "internalType": "struct Voting.Voter",
          "name": "",
          "type": "tuple"
        }
      ],
      "stateMutability": "view",
      "type": "function",
      "constant": true
    },
    {
      "inputs": [
        {
          "internalType": "uint256",
          "name": "_id",
          "type": "uint256"
        }
      ],
      "name": "getOneProposal",
      "outputs": [
        {
          "components": [
            {
              "internalType": "string",
              "name": "description",
              "type": "string"
            },
            {
              "internalType": "uint256",
              "name": "voteCount",
              "type": "uint256"
            }
          ],
          "internalType": "struct Voting.Proposal",
          "name": "",
          "type": "tuple"
        }
      ],
      "stateMutability": "view",
      "type": "function",
      "constant": true
    },
    {
      "inputs": [],
      "name": "getProposals",
      "outputs": [
        {
          "components": [
            {
              "internalType": "string",
              "name": "description",
              "type": "string"
            },
            {
              "internalType": "uint256",
              "name": "voteCount",
              "type": "uint256"
            }
          ],
          "internalType": "struct Voting.Proposal[]",
          "name": "",
          "type": "tuple[]"
        }
      ],
      "stateMutability": "view",
      "type": "function",
      "constant": true
    },
    {
      "inputs": [
        {
          "internalType": "address",
          "name": "_addr",
          "type": "address"
        }
      ],
      "name": "addVoter",
      "outputs": [],
      "stateMutability": "nonpayable",
      "type": "function"
    },
    {
      "inputs": [
        {
          "internalType": "string",
          "name": "_desc",
          "type": "string"
        }
      ],
      "name": "addProposal",
      "outputs": [],
      "stateMutability": "nonpayable",
      "type": "function"
    },
    {
      "inputs": [
        {
          "internalType": "uint256",
          "name": "_id",
          "type": "uint256"
        }
      ],
      "name": "setVote",
      "outputs": [],
      "stateMutability": "nonpayable",
      "type": "function"
    },
    {
      "inputs": [],
      "name": "startProposalsRegistering",
      "outputs": [],
      "stateMutability": "nonpayable",
      "type": "function"
    },
    {
      "inputs": [],
      "name": "endProposalsRegistering",
      "outputs": [],
      "stateMutability": "nonpayable",
      "type": "function"
    },
    {
      "inputs": [],
      "name": "startVotingSession",
      "outputs": [],
      "stateMutability": "nonpayable",
      "type": "function"
    },
    {
      "inputs": [],
      "name": "endVotingSession",
      "outputs": [],
      "stateMutability": "nonpayable",
      "type": "function"
    },
    {
      "inputs": [],
      "name": "tallyVotes",
      "outputs": [],
      "stateMutability": "nonpayable",
      "type": "function"
    }
  ],
  "bytecode": "0x60806040523480156200001157600080fd5b5062000032620000266200003860201b60201c565b6200004060201b60201c565b62000104565b600033905090565b60008060009054906101000a900473ffffffffffffffffffffffffffffffffffffffff169050816000806101000a81548173ffffffffffffffffffffffffffffffffffffffff021916908373ffffffffffffffffffffffffffffffffffffffff1602179055508173ffffffffffffffffffffffffffffffffffffffff168173ffffffffffffffffffffffffffffffffffffffff167f8be0079c531659141344cd1fd0a4f28419497f9722a3daafe3b4186f6b6457e060405160405180910390a35050565b61285280620001146000396000f3fe608060405234801561001057600080fd5b506004361061010b5760003560e01c8063a2788cce116100a2578063c88af42f11610071578063c88af42f14610236578063d4f50f9814610240578063ee74c67814610270578063f2fde38b1461027a578063f4ab9adf146102965761010b565b8063a2788cce146101d4578063a7bfab1614610204578063bdc014311461020e578063c7038a4e1461022c5761010b565b8063715018a6116100de578063715018a6146101705780638da5cb5b1461017a578063945ef7ef14610198578063a1edffa2146101b65761010b565b8063230796ae146101105780632fdae3c51461012c578063378a21781461014857806362564c4814610152575b600080fd5b61012a6004803603810190610125919061190a565b6102b2565b005b61014660048036038101906101419190611a7d565b610611565b005b610150610854565b005b61015a6109ae565b6040516101679190611c5c565b60405180910390f35b610178610b38565b005b610182610bc0565b60405161018f9190611cbf565b60405180910390f35b6101a0610be9565b6040516101ad9190611ce9565b60405180910390f35b6101be610bef565b6040516101cb9190611d7b565b60405180910390f35b6101ee60048036038101906101e9919061190a565b610c02565b6040516101fb9190611dd3565b60405180910390f35b61020c610d69565b005b610216610ec3565b6040516102239190611ce9565b60405180910390f35b610234610ec9565b005b61023e611023565b005b61025a60048036038101906102559190611e21565b61117d565b6040516102679190611eab565b60405180910390f35b6102786112a5565b005b610294600480360381019061028f9190611e21565b6113fe565b005b6102b060048036038101906102ab9190611e21565b6114f5565b005b600560003373ffffffffffffffffffffffffffffffffffffffff1673ffffffffffffffffffffffffffffffffffffffff16815260200190815260200160002060000160009054906101000a900460ff16610341576040517f08c379a000000000000000000000000000000000000000000000000000000000815260040161033890611f23565b60405180910390fd5b6003600581111561035557610354611d04565b5b600360009054906101000a900460ff16600581111561037757610376611d04565b5b146103b7576040517f08c379a00000000000000000000000000000000000000000000000000000000081526004016103ae90611fb5565b60405180910390fd5b60011515600560003373ffffffffffffffffffffffffffffffffffffffff1673ffffffffffffffffffffffffffffffffffffffff16815260200190815260200160002060000160019054906101000a900460ff1615150361044d576040517f08c379a000000000000000000000000000000000000000000000000000000000815260040161044490612021565b60405180910390fd5b600480549050811115610495576040517f08c379a000000000000000000000000000000000000000000000000000000000815260040161048c9061208d565b60405180910390fd5b80600560003373ffffffffffffffffffffffffffffffffffffffff1673ffffffffffffffffffffffffffffffffffffffff168152602001908152602001600020600101819055506001600560003373ffffffffffffffffffffffffffffffffffffffff1673ffffffffffffffffffffffffffffffffffffffff16815260200190815260200160002060000160016101000a81548160ff0219169083151502179055506004818154811061054b5761054a6120ad565b5b9060005260206000209060020201600101600081548092919061056d9061210b565b919050555060025460048281548110610589576105886120ad565b5b90600052602060002090600202016001015411156105d557600481815481106105b5576105b46120ad565b5b906000526020600020906002020160010154600281905550806001819055505b7f4d99b957a2bc29a30ebd96a7be8e68fe50a3c701db28a91436490b7d53870ca43382604051610606929190612153565b60405180910390a150565b600560003373ffffffffffffffffffffffffffffffffffffffff1673ffffffffffffffffffffffffffffffffffffffff16815260200190815260200160002060000160009054906101000a900460ff166106a0576040517f08c379a000000000000000000000000000000000000000000000000000000000815260040161069790611f23565b60405180910390fd5b600160058111156106b4576106b3611d04565b5b600360009054906101000a900460ff1660058111156106d6576106d5611d04565b5b14610716576040517f08c379a000000000000000000000000000000000000000000000000000000000815260040161070d906121c8565b60405180910390fd5b6040516020016107259061220e565b604051602081830303815290604052805190602001208160405160200161074c9190612267565b60405160208183030381529060405280519060200120036107a2576040517f08c379a0000000000000000000000000000000000000000000000000000000008152600401610799906122fb565b60405180910390fd5b6107aa6117de565b818160000181905250600481908060018154018082558091505060019003906000526020600020906002020160009091909190915060008201518160000190805190602001906107fb9291906117f8565b506020820151816001015550507f92e393e9b54e2f801d3ea4beb0c5e71a21cc34a5d34b77d0fb8a3aa1650dc18f600160048054905061083b919061231b565b6040516108489190611ce9565b60405180910390a15050565b61085c611712565b73ffffffffffffffffffffffffffffffffffffffff1661087a610bc0565b73ffffffffffffffffffffffffffffffffffffffff16146108d0576040517f08c379a00000000000000000000000000000000000000000000000000000000081526004016108c79061239b565b60405180910390fd5b600460058111156108e4576108e3611d04565b5b600360009054906101000a900460ff16600581111561090657610905611d04565b5b14610946576040517f08c379a000000000000000000000000000000000000000000000000000000000815260040161093d9061242d565b60405180910390fd5b6005600360006101000a81548160ff0219169083600581111561096c5761096b611d04565b5b02179055507f0a97a4ee45751e2abf3e4fc8946939630b11b371ea8ae39ccdc3056e98f5cc3f600460056040516109a492919061244d565b60405180910390a1565b6060600560003373ffffffffffffffffffffffffffffffffffffffff1673ffffffffffffffffffffffffffffffffffffffff16815260200190815260200160002060000160009054906101000a900460ff16610a3f576040517f08c379a0000000000000000000000000000000000000000000000000000000008152600401610a3690611f23565b60405180910390fd5b6004805480602002602001604051908101604052809291908181526020016000905b82821015610b2f5783829060005260206000209060020201604051806040016040529081600082018054610a94906124a5565b80601f0160208091040260200160405190810160405280929190818152602001828054610ac0906124a5565b8015610b0d5780601f10610ae257610100808354040283529160200191610b0d565b820191906000526020600020905b815481529060010190602001808311610af057829003601f168201915b5050505050815260200160018201548152505081526020019060010190610a61565b50505050905090565b610b40611712565b73ffffffffffffffffffffffffffffffffffffffff16610b5e610bc0565b73ffffffffffffffffffffffffffffffffffffffff1614610bb4576040517f08c379a0000000000000000000000000000000000000000000000000000000008152600401610bab9061239b565b60405180910390fd5b610bbe600061171a565b565b60008060009054906101000a900473ffffffffffffffffffffffffffffffffffffffff16905090565b60025481565b600360009054906101000a900460ff1681565b610c0a6117de565b600560003373ffffffffffffffffffffffffffffffffffffffff1673ffffffffffffffffffffffffffffffffffffffff16815260200190815260200160002060000160009054906101000a900460ff16610c99576040517f08c379a0000000000000000000000000000000000000000000000000000000008152600401610c9090611f23565b60405180910390fd5b60048281548110610cad57610cac6120ad565b5b9060005260206000209060020201604051806040016040529081600082018054610cd6906124a5565b80601f0160208091040260200160405190810160405280929190818152602001828054610d02906124a5565b8015610d4f5780601f10610d2457610100808354040283529160200191610d4f565b820191906000526020600020905b815481529060010190602001808311610d3257829003601f168201915b505050505081526020016001820154815250509050919050565b610d71611712565b73ffffffffffffffffffffffffffffffffffffffff16610d8f610bc0565b73ffffffffffffffffffffffffffffffffffffffff1614610de5576040517f08c379a0000000000000000000000000000000000000000000000000000000008152600401610ddc9061239b565b60405180910390fd5b60036005811115610df957610df8611d04565b5b600360009054906101000a900460ff166005811115610e1b57610e1a611d04565b5b14610e5b576040517f08c379a0000000000000000000000000000000000000000000000000000000008152600401610e5290611fb5565b60405180910390fd5b6004600360006101000a81548160ff02191690836005811115610e8157610e80611d04565b5b02179055507f0a97a4ee45751e2abf3e4fc8946939630b11b371ea8ae39ccdc3056e98f5cc3f60036004604051610eb992919061244d565b60405180910390a1565b60015481565b610ed1611712565b73ffffffffffffffffffffffffffffffffffffffff16610eef610bc0565b73ffffffffffffffffffffffffffffffffffffffff1614610f45576040517f08c379a0000000000000000000000000000000000000000000000000000000008152600401610f3c9061239b565b60405180910390fd5b60006005811115610f5957610f58611d04565b5b600360009054906101000a900460ff166005811115610f7b57610f7a611d04565b5b14610fbb576040517f08c379a0000000000000000000000000000000000000000000000000000000008152600401610fb290612548565b60405180910390fd5b6001600360006101000a81548160ff02191690836005811115610fe157610fe0611d04565b5b02179055507f0a97a4ee45751e2abf3e4fc8946939630b11b371ea8ae39ccdc3056e98f5cc3f6000600160405161101992919061244d565b60405180910390a1565b61102b611712565b73ffffffffffffffffffffffffffffffffffffffff16611049610bc0565b73ffffffffffffffffffffffffffffffffffffffff161461109f576040517f08c379a00000000000000000000000000000000000000000000000000000000081526004016110969061239b565b60405180910390fd5b600160058111156110b3576110b2611d04565b5b600360009054906101000a900460ff1660058111156110d5576110d4611d04565b5b14611115576040517f08c379a000000000000000000000000000000000000000000000000000000000815260040161110c906125da565b60405180910390fd5b6002600360006101000a81548160ff0219169083600581111561113b5761113a611d04565b5b02179055507f0a97a4ee45751e2abf3e4fc8946939630b11b371ea8ae39ccdc3056e98f5cc3f6001600260405161117392919061244d565b60405180910390a1565b61118561187e565b600560003373ffffffffffffffffffffffffffffffffffffffff1673ffffffffffffffffffffffffffffffffffffffff16815260200190815260200160002060000160009054906101000a900460ff16611214576040517f08c379a000000000000000000000000000000000000000000000000000000000815260040161120b90611f23565b60405180910390fd5b600560008373ffffffffffffffffffffffffffffffffffffffff1673ffffffffffffffffffffffffffffffffffffffff1681526020019081526020016000206040518060600160405290816000820160009054906101000a900460ff161515151581526020016000820160019054906101000a900460ff161515151581526020016001820154815250509050919050565b6112ad611712565b73ffffffffffffffffffffffffffffffffffffffff166112cb610bc0565b73ffffffffffffffffffffffffffffffffffffffff1614611321576040517f08c379a00000000000000000000000000000000000000000000000000000000081526004016113189061239b565b60405180910390fd5b6002600581111561133557611334611d04565b5b600360009054906101000a900460ff16600581111561135757611356611d04565b5b14611397576040517f08c379a000000000000000000000000000000000000000000000000000000000815260040161138e9061266c565b60405180910390fd5b60038060006101000a81548160ff021916908360058111156113bc576113bb611d04565b5b02179055507f0a97a4ee45751e2abf3e4fc8946939630b11b371ea8ae39ccdc3056e98f5cc3f600260036040516113f492919061244d565b60405180910390a1565b611406611712565b73ffffffffffffffffffffffffffffffffffffffff16611424610bc0565b73ffffffffffffffffffffffffffffffffffffffff161461147a576040517f08c379a00000000000000000000000000000000000000000000000000000000081526004016114719061239b565b60405180910390fd5b600073ffffffffffffffffffffffffffffffffffffffff168173ffffffffffffffffffffffffffffffffffffffff16036114e9576040517f08c379a00000000000000000000000000000000000000000000000000000000081526004016114e0906126fe565b60405180910390fd5b6114f28161171a565b50565b6114fd611712565b73ffffffffffffffffffffffffffffffffffffffff1661151b610bc0565b73ffffffffffffffffffffffffffffffffffffffff1614611571576040517f08c379a00000000000000000000000000000000000000000000000000000000081526004016115689061239b565b60405180910390fd5b6000600581111561158557611584611d04565b5b600360009054906101000a900460ff1660058111156115a7576115a6611d04565b5b146115e7576040517f08c379a00000000000000000000000000000000000000000000000000000000081526004016115de90612790565b60405180910390fd5b60011515600560008373ffffffffffffffffffffffffffffffffffffffff1673ffffffffffffffffffffffffffffffffffffffff16815260200190815260200160002060000160009054906101000a900460ff1615150361167d576040517f08c379a0000000000000000000000000000000000000000000000000000000008152600401611674906127fc565b60405180910390fd5b6001600560008373ffffffffffffffffffffffffffffffffffffffff1673ffffffffffffffffffffffffffffffffffffffff16815260200190815260200160002060000160006101000a81548160ff0219169083151502179055507fb6be2187d059cc2a55fe29e0e503b566e1e0f8c8780096e185429350acffd3dd816040516117079190611cbf565b60405180910390a150565b600033905090565b60008060009054906101000a900473ffffffffffffffffffffffffffffffffffffffff169050816000806101000a81548173ffffffffffffffffffffffffffffffffffffffff021916908373ffffffffffffffffffffffffffffffffffffffff1602179055508173ffffffffffffffffffffffffffffffffffffffff168173ffffffffffffffffffffffffffffffffffffffff167f8be0079c531659141344cd1fd0a4f28419497f9722a3daafe3b4186f6b6457e060405160405180910390a35050565b604051806040016040528060608152602001600081525090565b828054611804906124a5565b90600052602060002090601f016020900481019282611826576000855561186d565b82601f1061183f57805160ff191683800117855561186d565b8280016001018555821561186d579182015b8281111561186c578251825591602001919060010190611851565b5b50905061187a91906118a3565b5090565b6040518060600160405280600015158152602001600015158152602001600081525090565b5b808211156118bc5760008160009055506001016118a4565b5090565b6000604051905090565b600080fd5b600080fd5b6000819050919050565b6118e7816118d4565b81146118f257600080fd5b50565b600081359050611904816118de565b92915050565b6000602082840312156119205761191f6118ca565b5b600061192e848285016118f5565b91505092915050565b600080fd5b600080fd5b6000601f19601f8301169050919050565b7f4e487b7100000000000000000000000000000000000000000000000000000000600052604160045260246000fd5b61198a82611941565b810181811067ffffffffffffffff821117156119a9576119a8611952565b5b80604052505050565b60006119bc6118c0565b90506119c88282611981565b919050565b600067ffffffffffffffff8211156119e8576119e7611952565b5b6119f182611941565b9050602081019050919050565b82818337600083830152505050565b6000611a20611a1b846119cd565b6119b2565b905082815260208101848484011115611a3c57611a3b61193c565b5b611a478482856119fe565b509392505050565b600082601f830112611a6457611a63611937565b5b8135611a74848260208601611a0d565b91505092915050565b600060208284031215611a9357611a926118ca565b5b600082013567ffffffffffffffff811115611ab157611ab06118cf565b5b611abd84828501611a4f565b91505092915050565b600081519050919050565b600082825260208201905092915050565b6000819050602082019050919050565b600081519050919050565b600082825260208201905092915050565b60005b83811015611b2c578082015181840152602081019050611b11565b83811115611b3b576000848401525b50505050565b6000611b4c82611af2565b611b568185611afd565b9350611b66818560208601611b0e565b611b6f81611941565b840191505092915050565b611b83816118d4565b82525050565b60006040830160008301518482036000860152611ba68282611b41565b9150506020830151611bbb6020860182611b7a565b508091505092915050565b6000611bd28383611b89565b905092915050565b6000602082019050919050565b6000611bf282611ac6565b611bfc8185611ad1565b935083602082028501611c0e85611ae2565b8060005b85811015611c4a5784840389528151611c2b8582611bc6565b9450611c3683611bda565b925060208a01995050600181019050611c12565b50829750879550505050505092915050565b60006020820190508181036000830152611c768184611be7565b905092915050565b600073ffffffffffffffffffffffffffffffffffffffff82169050919050565b6000611ca982611c7e565b9050919050565b611cb981611c9e565b82525050565b6000602082019050611cd46000830184611cb0565b92915050565b611ce3816118d4565b82525050565b6000602082019050611cfe6000830184611cda565b92915050565b7f4e487b7100000000000000000000000000000000000000000000000000000000600052602160045260246000fd5b60068110611d4457611d43611d04565b5b50565b6000819050611d5582611d33565b919050565b6000611d6582611d47565b9050919050565b611d7581611d5a565b82525050565b6000602082019050611d906000830184611d6c565b92915050565b60006040830160008301518482036000860152611db38282611b41565b9150506020830151611dc86020860182611b7a565b508091505092915050565b60006020820190508181036000830152611ded8184611d96565b905092915050565b611dfe81611c9e565b8114611e0957600080fd5b50565b600081359050611e1b81611df5565b92915050565b600060208284031215611e3757611e366118ca565b5b6000611e4584828501611e0c565b91505092915050565b60008115159050919050565b611e6381611e4e565b82525050565b606082016000820151611e7f6000850182611e5a565b506020820151611e926020850182611e5a565b506040820151611ea56040850182611b7a565b50505050565b6000606082019050611ec06000830184611e69565b92915050565b600082825260208201905092915050565b7f596f75277265206e6f74206120766f7465720000000000000000000000000000600082015250565b6000611f0d601283611ec6565b9150611f1882611ed7565b602082019050919050565b60006020820190508181036000830152611f3c81611f00565b9050919050565b7f566f74696e672073657373696f6e20686176656e74207374617274656420796560008201527f7400000000000000000000000000000000000000000000000000000000000000602082015250565b6000611f9f602183611ec6565b9150611faa82611f43565b604082019050919050565b60006020820190508181036000830152611fce81611f92565b9050919050565b7f596f75206861766520616c726561647920766f74656400000000000000000000600082015250565b600061200b601683611ec6565b915061201682611fd5565b602082019050919050565b6000602082019050818103600083015261203a81611ffe565b9050919050565b7f50726f706f73616c206e6f7420666f756e640000000000000000000000000000600082015250565b6000612077601283611ec6565b915061208282612041565b602082019050919050565b600060208201905081810360008301526120a68161206a565b9050919050565b7f4e487b7100000000000000000000000000000000000000000000000000000000600052603260045260246000fd5b7f4e487b7100000000000000000000000000000000000000000000000000000000600052601160045260246000fd5b6000612116826118d4565b91507fffffffffffffffffffffffffffffffffffffffffffffffffffffffffffffffff8203612148576121476120dc565b5b600182019050919050565b60006040820190506121686000830185611cb0565b6121756020830184611cda565b9392505050565b7f50726f706f73616c7320617265206e6f7420616c6c6f77656420796574000000600082015250565b60006121b2601d83611ec6565b91506121bd8261217c565b602082019050919050565b600060208201905081810360008301526121e1816121a5565b9050919050565b50565b60006121f8600083611ec6565b9150612203826121e8565b600082019050919050565b60006020820190508181036000830152612227816121eb565b9050919050565b600061223982611af2565b6122438185611ec6565b9350612253818560208601611b0e565b61225c81611941565b840191505092915050565b60006020820190508181036000830152612281818461222e565b905092915050565b7f566f7573206e6520706f7576657a20706173206e65207269656e2070726f706f60008201527f7365720000000000000000000000000000000000000000000000000000000000602082015250565b60006122e5602383611ec6565b91506122f082612289565b604082019050919050565b60006020820190508181036000830152612314816122d8565b9050919050565b6000612326826118d4565b9150612331836118d4565b925082821015612344576123436120dc565b5b828203905092915050565b7f4f776e61626c653a2063616c6c6572206973206e6f7420746865206f776e6572600082015250565b6000612385602083611ec6565b91506123908261234f565b602082019050919050565b600060208201905081810360008301526123b481612378565b9050919050565b7f43757272656e7420737461747573206973206e6f7420766f74696e672073657360008201527f73696f6e20656e64656400000000000000000000000000000000000000000000602082015250565b6000612417602a83611ec6565b9150612422826123bb565b604082019050919050565b600060208201905081810360008301526124468161240a565b9050919050565b60006040820190506124626000830185611d6c565b61246f6020830184611d6c565b9392505050565b7f4e487b7100000000000000000000000000000000000000000000000000000000600052602260045260246000fd5b600060028204905060018216806124bd57607f821691505b6020821081036124d0576124cf612476565b5b50919050565b7f5265676973746572696e672070726f706f73616c732063616e7420626520737460008201527f6172746564206e6f770000000000000000000000000000000000000000000000602082015250565b6000612532602983611ec6565b915061253d826124d6565b604082019050919050565b6000602082019050818103600083015261256181612525565b9050919050565b7f5265676973746572696e672070726f706f73616c7320686176656e742073746160008201527f7274656420796574000000000000000000000000000000000000000000000000602082015250565b60006125c4602883611ec6565b91506125cf82612568565b604082019050919050565b600060208201905081810360008301526125f3816125b7565b9050919050565b7f5265676973746572696e672070726f706f73616c73207068617365206973206e60008201527f6f742066696e6973686564000000000000000000000000000000000000000000602082015250565b6000612656602b83611ec6565b9150612661826125fa565b604082019050919050565b6000602082019050818103600083015261268581612649565b9050919050565b7f4f776e61626c653a206e6577206f776e657220697320746865207a65726f206160008201527f6464726573730000000000000000000000000000000000000000000000000000602082015250565b60006126e8602683611ec6565b91506126f38261268c565b604082019050919050565b60006020820190508181036000830152612717816126db565b9050919050565b7f566f7465727320726567697374726174696f6e206973206e6f74206f70656e2060008201527f7965740000000000000000000000000000000000000000000000000000000000602082015250565b600061277a602383611ec6565b91506127858261271e565b604082019050919050565b600060208201905081810360008301526127a98161276d565b9050919050565b7f416c726561647920726567697374657265640000000000000000000000000000600082015250565b60006127e6601283611ec6565b91506127f1826127b0565b602082019050919050565b60006020820190508181036000830152612815816127d9565b905091905056fea26469706673582212203a523980820589b63609b5211740315c24852fa4903f0af2cd59eedf62c440b564736f6c634300080d0033",
  "immutableReferences": {},
  "source": "// SPDX-License-Identifier: MIT\n\npragma solidity 0.8.13;\nimport \"./../node_modules/@openzeppelin/contracts/access/Ownable.sol\";\n/// @title Alyra Voting Contract\n/// @author Najib Ch (based on a contract from Cyril.C)\n/// @notice You can use this contract to run a simple vote\n/// @dev Voting system based on a specific workflow. Owner is the one leading the vote.\ncontract Voting is Ownable {\n\n    // arrays for draw, uint for single\n    // uint[] winningProposalsID;\n    // Proposal[] public winningProposals;\n    uint public winningProposalID;\n\n    uint public winningProposalIDVoteCount;\n\n    struct Voter {\n        bool isRegistered;\n        bool hasVoted;\n        uint votedProposalId;\n    }\n\n    struct Proposal {\n        string description;\n        uint voteCount;\n    }\n\n    enum  WorkflowStatus {\n        RegisteringVoters,\n        ProposalsRegistrationStarted,\n        ProposalsRegistrationEnded,\n        VotingSessionStarted,\n        VotingSessionEnded,\n        VotesTallied\n    }\n\n    WorkflowStatus public workflowStatus;\n    Proposal[]  proposalsArray;\n    mapping (address => Voter) voters;\n\n\n    event VoterRegistered(address voterAddress);\n    event WorkflowStatusChange(WorkflowStatus previousStatus, WorkflowStatus newStatus);\n    event ProposalRegistered(uint proposalId);\n    event Voted (address voter, uint proposalId);\n\n\n    /// @notice Modifiers to only allow registered voters\n    /// @dev Verify that sender is registered in voters mapping\n    modifier onlyVoters() {\n        require(voters[msg.sender].isRegistered, \"You're not a voter\");\n        _;\n    }\n\n    // on peut faire un modifier pour les tats\n\n    // ::::::::::::: GETTERS ::::::::::::: //\n\n    /// @notice Get Voter structure\n    /// @dev Get Voter structure\n    /// @param _addr address of the voter\n    /// @return Voter Structure\n    function getVoter(address _addr) external onlyVoters view returns (Voter memory) {\n        return voters[_addr];\n    }\n\n    /// @notice Get a proposal from the proposals list using its ID\n    /// @dev Get a proposal from the proposals list using its ID\n    /// @param _id id of the proposal\n    /// @return A proposal with id\n    function getOneProposal(uint _id) external onlyVoters view returns (Proposal memory) {\n        return proposalsArray[_id];\n    }\n\n    /// @notice Get the list of proposals\n    /// @dev Get the list of proposals\n    /// @return Proposals Array\n    function getProposals() external onlyVoters view returns (Proposal[] memory){\n        return proposalsArray;\n    }\n\n\n    // ::::::::::::: REGISTRATION ::::::::::::: //\n\n    /// @notice Allow to register a voter\n    /// @dev Add a voter to the voters mapping\n    /// @param _addr address of the voter\n    function addVoter(address _addr) external onlyOwner {\n        require(workflowStatus == WorkflowStatus.RegisteringVoters, 'Voters registration is not open yet');\n        require(voters[_addr].isRegistered != true, 'Already registered');\n\n        voters[_addr].isRegistered = true;\n        emit VoterRegistered(_addr);\n    }\n\n    /* facultatif\n     * function deleteVoter(address _addr) external onlyOwner {\n     *   require(workflowStatus == WorkflowStatus.RegisteringVoters, 'Voters registration is not open yet');\n     *   require(voters[_addr].isRegistered == true, 'Not registered.');\n     *   voters[_addr].isRegistered = false;\n     *  emit VoterRegistered(_addr);\n    }*/\n\n    // ::::::::::::: PROPOSAL ::::::::::::: //\n\n    /// @notice Allow to add a proposal to the list using a description\n    /// @dev Add a proposal to proposalArrays using a description\n    /// @param _desc description of the proposal\n    function addProposal(string memory _desc) external onlyVoters {\n        require(workflowStatus == WorkflowStatus.ProposalsRegistrationStarted, 'Proposals are not allowed yet');\n        require(keccak256(abi.encode(_desc)) != keccak256(abi.encode(\"\")), 'Vous ne pouvez pas ne rien proposer'); // facultatif\n        // voir que desc est different des autres\n\n        Proposal memory proposal;\n        proposal.description = _desc;\n        proposalsArray.push(proposal);\n        emit ProposalRegistered(proposalsArray.length-1);\n    }\n\n    // ::::::::::::: VOTE ::::::::::::: //\n\n    /// @notice Allow a voter to vote for a specific proposal and update voter's status\n    /// @dev Allow a voter to vote for a specific proposal and update voter's status\n    /// @param _id id of the proposal voted by the voter\n    function setVote( uint _id) external onlyVoters {\n        require(workflowStatus == WorkflowStatus.VotingSessionStarted, 'Voting session havent started yet');\n        require(voters[msg.sender].hasVoted != true, 'You have already voted');\n        require(_id <= proposalsArray.length, 'Proposal not found'); // pas oblig, et pas besoin du >0 car uint\n\n        voters[msg.sender].votedProposalId = _id;\n        voters[msg.sender].hasVoted = true;\n        proposalsArray[_id].voteCount++;\n        if(proposalsArray[_id].voteCount > winningProposalIDVoteCount) {\n            winningProposalIDVoteCount = proposalsArray[_id].voteCount;\n            winningProposalID = _id;\n        }\n\n        emit Voted(msg.sender, _id);\n    }\n\n    // ::::::::::::: STATE ::::::::::::: //\n\n    /* on pourrait factoriser tout a: par exemple:\n    *\n    *  modifier checkWorkflowStatus(uint  _num) {\n    *    require (workflowStatus=WorkflowStatus(uint(_num)-1, \"bad workflowstatus\");\n    *    require (num != 5, \"il faut lancer tally votes\");\n    *    _;\n    *  }\n    *\n    *  function setWorkflowStatus(WorkflowStatus _num) public checkWorkflowStatus( _num) onlyOwner {\n    *    WorkflowStatus old = workflowStatus;\n    *    workflowStatus = WorkflowStatus(_num);\n    *    emit WorkflowStatusChange(old, workflowStatus);\n    *   }\n    *\n    *  ou plus simplement:\n    *  function nextWorkflowStatus() onlyOwner{\n    *    require (uint(workflowStatus)!=4, \"il faut lancer tallyvotes\");\n    *    WorkflowStatus old = workflowStatus;\n    *    workflowStatus= WorkflowStatus(uint (workflowstatus) + 1);\n    *    emit WorkflowStatusChange(old, workflowStatus);\n    *  }\n    *\n    */\n\n    /// @notice Allow the owner to startProposalsRegistering\n    /// @dev  Allow the owner to startProposalsRegistering\n    function startProposalsRegistering() external onlyOwner {\n        require(workflowStatus == WorkflowStatus.RegisteringVoters, 'Registering proposals cant be started now');\n        workflowStatus = WorkflowStatus.ProposalsRegistrationStarted;\n        emit WorkflowStatusChange(WorkflowStatus.RegisteringVoters, WorkflowStatus.ProposalsRegistrationStarted);\n    }\n\n    /// @notice Allow the owner to endProposalsRegistering\n    /// @dev  Allow the owner to endProposalsRegistering\n    function endProposalsRegistering() external onlyOwner {\n        require(workflowStatus == WorkflowStatus.ProposalsRegistrationStarted, 'Registering proposals havent started yet');\n        workflowStatus = WorkflowStatus.ProposalsRegistrationEnded;\n        emit WorkflowStatusChange(WorkflowStatus.ProposalsRegistrationStarted, WorkflowStatus.ProposalsRegistrationEnded);\n    }\n\n    /// @notice Allow the owner to startVotingSession\n    /// @dev  Allow the owner to startVotingSession\n    function startVotingSession() external onlyOwner {\n        require(workflowStatus == WorkflowStatus.ProposalsRegistrationEnded, 'Registering proposals phase is not finished');\n        workflowStatus = WorkflowStatus.VotingSessionStarted;\n        emit WorkflowStatusChange(WorkflowStatus.ProposalsRegistrationEnded, WorkflowStatus.VotingSessionStarted);\n    }\n\n    /// @notice Allow the owner to endVotingSession\n    /// @dev  Allow the owner to endVotingSession\n    function endVotingSession() external onlyOwner {\n        require(workflowStatus == WorkflowStatus.VotingSessionStarted, 'Voting session havent started yet');\n        workflowStatus = WorkflowStatus.VotingSessionEnded;\n        emit WorkflowStatusChange(WorkflowStatus.VotingSessionStarted, WorkflowStatus.VotingSessionEnded);\n    }\n\n    /* function tallyVotesDraw() external onlyOwner {\n       require(workflowStatus == WorkflowStatus.VotingSessionEnded, \"Current status is not voting session ended\");\n        uint highestCount;\n        uint[5]memory winners; // egalite entre 5 personnes max\n        uint nbWinners;\n        for (uint i = 0; i < proposalsArray.length; i++) {\n            if (proposalsArray[i].voteCount == highestCount) {\n                winners[nbWinners]=i;\n                nbWinners++;\n            }\n            if (proposalsArray[i].voteCount > highestCount) {\n                delete winners;\n                winners[0]= i;\n                highestCount = proposalsArray[i].voteCount;\n                nbWinners=1;\n            }\n        }\n        for(uint j=0;j<nbWinners;j++){\n            winningProposalsID.push(winners[j]);\n            winningProposals.push(proposalsArray[winners[j]]);\n        }\n        workflowStatus = WorkflowStatus.VotesTallied;\n        emit WorkflowStatusChange(WorkflowStatus.VotingSessionEnded, WorkflowStatus.VotesTallied);\n    } */\n\n    /// @notice Allow the owner to tallyVotes and announce winning proposal\n    /// @dev  Allow the owner to tallyVotes and announce winning proposal\n    function tallyVotes() external onlyOwner {\n        require(workflowStatus == WorkflowStatus.VotingSessionEnded, \"Current status is not voting session ended\");\n        /* uint _winningProposalId;\n        for (uint256 p = 0; p < proposalsArray.length; p++) {\n            if (proposalsArray[p].voteCount > proposalsArray[_winningProposalId].voteCount) {\n                _winningProposalId = p;\n            }\n        }\n        winningProposalID = _winningProposalId;*/\n\n        workflowStatus = WorkflowStatus.VotesTallied;\n        emit WorkflowStatusChange(WorkflowStatus.VotingSessionEnded, WorkflowStatus.VotesTallied);\n    }\n}",
  "sourcePath": "/Users/najib/work/dev/alyra-voting-react/contracts/Voting.sol",
  "compiler": {
    "name": "solc",
    "version": "0.8.13+commit.abaa5c0e.Emscripten.clang"
  },
  "schemaVersion": "3.4.6",
  "updatedAt": "2022-04-20T17:37:20.493Z",
  "networkType": "ethereum",
  "devdoc": {
    "author": "Najib Ch (based on a contract from Cyril.C)",
    "details": "Voting system based on a specific workflow. Owner is the one leading the vote.",
    "kind": "dev",
    "methods": {
      "addProposal(string)": {
        "details": "Add a proposal to proposalArrays using a description",
        "params": {
          "_desc": "description of the proposal"
        }
      },
      "addVoter(address)": {
        "details": "Add a voter to the voters mapping",
        "params": {
          "_addr": "address of the voter"
        }
      },
      "endProposalsRegistering()": {
        "details": "Allow the owner to endProposalsRegistering"
      },
      "endVotingSession()": {
        "details": "Allow the owner to endVotingSession"
      },
      "getOneProposal(uint256)": {
        "details": "Get a proposal from the proposals list using its ID",
        "params": {
          "_id": "id of the proposal"
        },
        "returns": {
          "_0": "A proposal with id"
        }
      },
      "getProposals()": {
        "details": "Get the list of proposals",
        "returns": {
          "_0": "Proposals Array"
        }
      },
      "getVoter(address)": {
        "details": "Get Voter structure",
        "params": {
          "_addr": "address of the voter"
        },
        "returns": {
          "_0": "Voter Structure"
        }
      },
      "owner()": {
        "details": "Returns the address of the current owner."
      },
      "renounceOwnership()": {
        "details": "Leaves the contract without owner. It will not be possible to call `onlyOwner` functions anymore. Can only be called by the current owner. NOTE: Renouncing ownership will leave the contract without an owner, thereby removing any functionality that is only available to the owner."
      },
      "setVote(uint256)": {
        "details": "Allow a voter to vote for a specific proposal and update voter's status",
        "params": {
          "_id": "id of the proposal voted by the voter"
        }
      },
      "startProposalsRegistering()": {
        "details": "Allow the owner to startProposalsRegistering"
      },
      "startVotingSession()": {
        "details": "Allow the owner to startVotingSession"
      },
      "tallyVotes()": {
        "details": "Allow the owner to tallyVotes and announce winning proposal"
      },
      "transferOwnership(address)": {
        "details": "Transfers ownership of the contract to a new account (`newOwner`). Can only be called by the current owner."
      }
    },
    "title": "Alyra Voting Contract",
    "version": 1
  },
  "userdoc": {
    "kind": "user",
    "methods": {
      "addProposal(string)": {
        "notice": "Allow to add a proposal to the list using a description"
      },
      "addVoter(address)": {
        "notice": "Allow to register a voter"
      },
      "endProposalsRegistering()": {
        "notice": "Allow the owner to endProposalsRegistering"
      },
      "endVotingSession()": {
        "notice": "Allow the owner to endVotingSession"
      },
      "getOneProposal(uint256)": {
        "notice": "Get a proposal from the proposals list using its ID"
      },
      "getProposals()": {
        "notice": "Get the list of proposals"
      },
      "getVoter(address)": {
        "notice": "Get Voter structure"
      },
      "setVote(uint256)": {
        "notice": "Allow a voter to vote for a specific proposal and update voter's status"
      },
      "startProposalsRegistering()": {
        "notice": "Allow the owner to startProposalsRegistering"
      },
      "startVotingSession()": {
        "notice": "Allow the owner to startVotingSession"
      },
      "tallyVotes()": {
        "notice": "Allow the owner to tallyVotes and announce winning proposal"
      }
    },
    "notice": "You can use this contract to run a simple vote",
    "version": 1
  }
}